:020000020000FC
:040000000C9440001C
:040034000C94040123
:1000800000270F6000937A000027016C00937C002A
:1000900007B111E01095012307B900917C0010E22F
:1000A0001095012300937C0001E0013031F00091B4
:1000B0007C0010E2012B00937C000C94700007EC94
:1000C00000937A0000917A0004FFFCCF00E10093D6
:1000D0007A0000917800802F00917900902F089588
:1000E00004B118E0012B04B904B110E1012B04B9EB
:1000F00004B110E2012B04B90C94A70000E1202EFA
:1001000005B110E11095012305B9889405B118E0F7
:100110001095012305B9880F991F20F405B118E047
:10012000012B05B905B110E2012B05B905B110E2AB
:100130001095012305B905B118E01095012305B903
:100140002A9449F705B110E1012B05B9089500E0A3
:100150000093840000EF0093850000E0009380008E
:1001600004E00093810001E000936F00789400E1C7
:10017000202E05B110E11095012305B900270F933A
:1001800005B118E01095012305B90F910FBF881F25
:10019000991F0FB70F9320F405B118E0012B05B993
:1001A00005B110E2012B05B905B110E2109501234C
:1001B00005B905B118E01095012305B92A9429F76E
:1001C0000F9105B110E1012B05B908952227482FA1
:1001D000592F60E070E84717520730F0639510E838
:1001E000710F1127211FF7CF80E090E001E010E0B0
:1001F000161724F4000F01601395FACF902F9095F5
:100200000E94B7000895FFCF0E945F000E94E600A1
:040210001895FFCF6F
:00000001FF
