:020000020000FC
:040000000C941C0040
:100034000C94E00004B118E0012B04B904B110E100
:10004400012B04B904B110E2012B04B90C94530040
:1000540000E1202E05B110E11095012305B9889423
:1000640005B118E01095012305B9880F991F20F4F4
:1000740005B118E0012B05B905B110E2012B05B952
:1000840005B110E21095012305B905B118E01095EA
:10009400012305B92A9449F705B110E1012B05B9EB
:1000A400089500E00093840000EF0093850000E0D1
:1000B4000093800004E00093810001E000936F004E
:1000C400789400270F6000937A000027016C009356
:1000D4007C0007B111E01095012307B900917C0061
:1000E40010E21095012300937C0001E0013031F00F
:1000F40000917C0010E2012B00937C000C9493008F
:1001040007EC00937A0000917A0004FFFCCF00E131
:1001140000937A0000917800802F00917900902F4D
:10012400089501020408102040800C949F0000E010
:10013400009300010093010108950C94B600969574
:10014400879596958795969587959695879596958F
:10015400879596958795969587958395893008F028
:1001640088E08093000108950C94D8006091010107
:1001740070910001671758F090E08FEF0E942A00F9
:100184006395683008F06627609301010895E6E2FC
:10019400F1E0E60F0027F01F949180E00E942A000E
:1001A4006395683088F366270C94C60000240E9487
:1001B40099000E94B8000C94DB00FFCF0E948200DB
:0601C4000E94A100189545
:00000001FF
